S0190000536D6172745F486F6D655F4D61737465722E7372656351
S11300000C942A000C9447000C9447000C9447006D
S11300100C9447000C9447000C9447000C9467011F
S11300200C9447000C9447000C9447000C94470030
S11300300C9447000C9447000C9447000C94470020
S11300400C9447000C9447000C9447000C94470010
S11300500C94470011241FBECFE5D8E0DEBFCDBF0E
S113006010E0A0E6B0E0ECEEF3E002C005900D92E3
S1130070AA37B107D9F720E0AAE7B0E001C01D9282
S1130080AE37B207E1F70E940A010C94F4010C9414
S113009000009BB39F70282F207F922B9BBBC1989D
S11300A0C39A35E33A95F1F70000C398EFE3FFE113
S11300B03197F1F700C000002BB32F70F0E18F9F50
S11300C0C0011124822B8BBBC39A35E33A95F1F717
S11300D00000C3988FE39CE90197F1F700C000008A
S11300E008958AB3806F8ABB87B38E6087BBC2983A
S11300F02FEF89EF90E0215080409040E1F700C05D
S1130100000083E30E94490082E30E94490088E2E0
S11301100E9449008CE00E94490086E00E94490048
S113012081E00E94490008959BB39F70282F207F8F
S1130130922B9BBBC19AC39A35E33A95F1F7000021
S1130140C398EFE3FFE13197F1F700C000002BB350
S11301502F70F0E18F9FC0011124822B8BBBC39AB7
S113016035E33A95F1F70000C3988FE39FE10197D7
S1130170F1F700C0000008950F931F93CF93FC0183
S11301808081882359F08F01C0E00E949400CF5FE2
S1130190F801EC0FF11D80818111F7CFCF911F91F0
S11301A00F910895CF93DF93EA01811108C0603164
S11301B078F4862F8F7080680E94490009C08130CE
S11301C039F4603128F4862F8F70806C0E944900C6
S11301D0CE010E94BC00DF91CF910895CF93C82F28
S11301E06115710521F06130710551F011C0842F42
S11301F08F7080680E9449008C2F0E94940008C070
S1130200842F8F70806C0E9449008C2F0E94940070
S1130210CF9108950E9471000E94E80180E090E06F
S11302200E94CD01C49880E690E00E94BC004BE699
S113023050E060E081E00E94D2008DE08EBD80E15C
S113024089BF80E48FBD89E09DE39BBD8ABD78941E
S113025084E40E94E4012FEF83EC99E02150804074
S11302609040E1F700C0000081E20E94DF0180932A
S11302707D002FEF83EC99E0215080409040E1F71E
S113028000C0000082E20E94DF0180937C00809124
S11302907D004CE050E061E070E090E00E94EE00F0
S11302A080917C004DE050E061E070E090E00E94BD
S11302B0EE000E94F0010E94E4012FEF85EA9EE027
S11302C0215080409040E1F700C00000F2CF1F921F
S11302D00F920FB60F9211242F933F934F935F9376
S11302E06F937F938F939F93AF93BF93EF93FF93FA
S11302F080917A0090917B00019690937B0080938B
S11303007A0080917A0090917B000A97A8F184E4A6
S11303100E94E4012FEF83EC99E02150804090404B
S1130320E1F700C0000081E20E94DF0180937D00BC
S11303302FEF83EC99E0215080409040E1F700C01A
S1130340000082E20E94DF0180937C0010927B0017
S113035010927A0080917D004CE050E061E070E002
S113036090E00E94EE0080917C004DE050E061E05E
S113037070E090E00E94EE00FF91EF91BF91AF9189
S11303809F918F917F916F915F914F913F912F91A9
S11303900F900FBE0F901F901895882319F081308D
S11303A051F0089587B3806B87BBBE98C49A8DB112
S11303B082658DB90895BC98BE9A6E9A08958FB9D6
S11303C0779BFECF8FB108958FB9779BFECF0895A9
S11303D088E18AB986E880BD87E689B910BC0895AA
S10F03E05F9BFECF8CB10895F894FFCF12
S11303EC68656C6C6F2D4162646F0074656D70652B
S10D03FC7261747572653A20000006
S9030000FC
