S0180000536D6172745F486F6D655F536C6176652E73726563C3
S11300000C942A000C943F000C943F000C943F0085
S11300100C943F000C943F000C943F000C943F0060
S11300200C943F000C943F000C943F000C943F0050
S11300300C943F000C943F000C943F000C943F0040
S11300400C943F000C943F000C943F000C943F0030
S11300500C943F0011241FBECFE5D8E0DEBFCDBF16
S113006010E0A0E6B0E0ECEFF3E002C005900D92E2
S1130070AC3AB107D9F70E9419010C94FC010C9415
S1130080000087B1806C87B986B18B6A86B9089500
S113009097B18770906C892B87B9369A349BFECFC1
S11300A0349A84B125B190E0922B089584B380638F
S11300B084BB8D9A88EC90E09BBD8ABD81E88FBD9E
S11300C08BE08EBD0895833529F0873529F4AC9AE9
S11300D0AD980895AD9AAC9808959BB39F70282F5E
S11300E0207F922B9BBBC198C39A35E33A95F1F7D5
S11300F00000C398EFE3FFE13197F1F700C000007F
S11301002BB32F70F0E18F9FC0011124822B8BBB86
S1130110C39A35E33A95F1F70000C3988FE39CE95D
S11301200197F1F700C0000008958AB3806F8ABB7D
S113013087B38E6087BBC2982FEF89EF90E0215080
S113014080409040E1F700C0000083E30E946D000E
S113015082E30E946D0088E20E946D008CE00E94A0
S11301606D0086E00E946D0081E00E946D0008959C
S11301709BB39F70282F207F922B9BBBC19AC39A5D
S113018035E33A95F1F70000C398EFE3FFE13197C7
S1130190F1F700C000002BB32F70F0E18F9FC00176
S11301A01124822B8BBBC39A35E33A95F1F70000F7
S11301B0C39808950F931F93CF93FC0180818823E4
S11301C059F08F01C0E00E94B800CF5FF801EC0F36
S11301D0F11D80818111F7CFCF911F910F91089567
S11301E0CF93DF93EA01811108C0603178F4862F40
S11301F08F7080680E946D0009C0813039F46031CD
S113020028F4862F8F70806C0E946D00CE010E94AE
S1130210DA00DF91CF91089581E00E946D008FE3B1
S11302209FE10197F1F700C0000080E80E946D0093
S11302300895CF93DF9300D0CDB7DEB70E94950029
S11302400E9441000E945600A69A81E090E00E941C
S11302509F010E94B8012FEF31EE94E0215030400D
S11302609040E1F700C000008333D9F028F48133D3
S113027041F0823371F0EDCF843329F18434A9F154
S1130280E8CFAE9A0E940C0180E690E00E94DA006A
S1130290E0CFAE980E940C0189E690E00E94DA005B
S11302A0D8CF87E50E9463000E940C0143E750E029
S11302B061E080E00E94F0004FE750E062E080E0FF
S11302C00E94F000C6CF83E50E9463000E940C01E7
S11302D043E750E061E080E00E94F0004BE850E02A
S11302E062E080E00E94F000B4CF80E00E94480009
S11302F04AE050E0BE016F5F7F4F969587959695D3
S113030087950E94BC0189810E94B301813271F4F6
S11303100E940C0148E950E060E080E00E94F00097
S113032040EA50E060E081E00E94F0008A810E948F
S1130330B301823209F08DCF0E940C018ACF882349
S113034019F0813051F0089587B3806B87BBBE9854
S1130350C49A8DB180658DB90895BC98BE9A8DB14B
S113036082648DB908958FB9779BFECF8FB10895BC
S1130370779BFECF8FB108954532510520F442306A
S113038010F00C94C701FB011082CB010895BB2728
S11303904A3031F4992322F4BDE2909581959F4F20
S11303A00C94D301BB27FB015527AA27880F991F5B
S11303B0AA1FA41710F0A41B83955051B9F7A05D90
S11303C0AA3308F0A95DA193009779F7B111B1930D
S11303D01192CB010C94EC01DC01FC01672F7191AB
S11303E07723E1F7329704C07C916D937083629117
S10F03F0AE17BF07C8F30895F894FFCFC0
S11303FC4C69676874204F4E004C69676874204FD1
S113040C4646004443204D6F746F72204F4E004695
S113041C6F727761726420446972004261636B7716
S113042C617264204469720052656164696E67008C
S10F043C54656D70657261747572650022
S9030000FC
